{
  "_format": "hh-sol-artifact-1",
  "contractName": "COP27_Offset_Pool",
  "sourceName": "contracts/carbon_offset_contract.sol",
  "abi": [
    {
      "anonymous": false,
      "inputs": [
        {
          "indexed": false,
          "internalType": "string",
          "name": "tokenOrCoin",
          "type": "string"
        },
        {
          "indexed": false,
          "internalType": "uint256",
          "name": "carbonTokenContributed",
          "type": "uint256"
        }
      ],
      "name": "ContributionSent",
      "type": "event"
    },
    {
      "anonymous": false,
      "inputs": [
        {
          "indexed": false,
          "internalType": "bytes32",
          "name": "email",
          "type": "bytes32"
        },
        {
          "indexed": false,
          "internalType": "bytes8",
          "name": "dep",
          "type": "bytes8"
        },
        {
          "indexed": false,
          "internalType": "string",
          "name": "token",
          "type": "string"
        },
        {
          "indexed": false,
          "internalType": "uint256",
          "name": "carbonTokenPledged",
          "type": "uint256"
        }
      ],
      "name": "OffsetPledgeCaptured",
      "type": "event"
    },
    {
      "stateMutability": "payable",
      "type": "fallback"
    },
    {
      "inputs": [
        {
          "internalType": "address",
          "name": "fromToken",
          "type": "address"
        },
        {
          "internalType": "uint256",
          "name": "carbonAmount",
          "type": "uint256"
        }
      ],
      "name": "calculateNeededAmount",
      "outputs": [
        {
          "internalType": "uint256",
          "name": "",
          "type": "uint256"
        }
      ],
      "stateMutability": "view",
      "type": "function"
    },
    {
      "inputs": [
        {
          "internalType": "bytes",
          "name": "email",
          "type": "bytes"
        },
        {
          "internalType": "bytes8",
          "name": "dep",
          "type": "bytes8"
        },
        {
          "internalType": "uint256",
          "name": "carbonTokenPledged",
          "type": "uint256"
        }
      ],
      "name": "capturePledge",
      "outputs": [],
      "stateMutability": "nonpayable",
      "type": "function"
    },
    {
      "inputs": [
        {
          "internalType": "address",
          "name": "",
          "type": "address"
        }
      ],
      "name": "contributions",
      "outputs": [
        {
          "internalType": "uint256",
          "name": "",
          "type": "uint256"
        }
      ],
      "stateMutability": "view",
      "type": "function"
    },
    {
      "inputs": [
        {
          "internalType": "uint256",
          "name": "",
          "type": "uint256"
        }
      ],
      "name": "contributorsAddresses",
      "outputs": [
        {
          "internalType": "address",
          "name": "",
          "type": "address"
        }
      ],
      "stateMutability": "view",
      "type": "function"
    },
    {
      "inputs": [],
      "name": "getContributorsAddresses",
      "outputs": [
        {
          "internalType": "address[]",
          "name": "",
          "type": "address[]"
        }
      ],
      "stateMutability": "view",
      "type": "function"
    },
    {
      "inputs": [],
      "name": "getContributorsCount",
      "outputs": [
        {
          "internalType": "uint256",
          "name": "",
          "type": "uint256"
        }
      ],
      "stateMutability": "view",
      "type": "function"
    },
    {
      "inputs": [],
      "name": "getPledgeAmount",
      "outputs": [
        {
          "internalType": "uint256",
          "name": "",
          "type": "uint256"
        }
      ],
      "stateMutability": "view",
      "type": "function"
    },
    {
      "inputs": [
        {
          "internalType": "uint256",
          "name": "carbonAmount",
          "type": "uint256"
        }
      ],
      "name": "participateWithMatic",
      "outputs": [],
      "stateMutability": "payable",
      "type": "function"
    },
    {
      "inputs": [
        {
          "internalType": "address",
          "name": "fromToken",
          "type": "address"
        },
        {
          "internalType": "uint256",
          "name": "carbonAmount",
          "type": "uint256"
        }
      ],
      "name": "participateWithToken",
      "outputs": [],
      "stateMutability": "nonpayable",
      "type": "function"
    },
    {
      "inputs": [],
      "name": "poolingAddress",
      "outputs": [
        {
          "internalType": "address",
          "name": "",
          "type": "address"
        }
      ],
      "stateMutability": "view",
      "type": "function"
    },
    {
      "inputs": [],
      "name": "totalCarbonPledged",
      "outputs": [
        {
          "internalType": "uint256",
          "name": "",
          "type": "uint256"
        }
      ],
      "stateMutability": "view",
      "type": "function"
    },
    {
      "inputs": [],
      "name": "totalCarbonPooled",
      "outputs": [
        {
          "internalType": "uint256",
          "name": "",
          "type": "uint256"
        }
      ],
      "stateMutability": "view",
      "type": "function"
    },
    {
      "stateMutability": "payable",
      "type": "receive"
    }
  ],
  "bytecode": "0x60806040526000600255600060035573c37861b48ba866c3e3f8827a25c7a9f733e58bdd600460006101000a81548173ffffffffffffffffffffffffffffffffffffffff021916908373ffffffffffffffffffffffffffffffffffffffff160217905550731b02da8cb0d097eb8d57a175b88c7d8b47997506600560006101000a81548173ffffffffffffffffffffffffffffffffffffffff021916908373ffffffffffffffffffffffffffffffffffffffff16021790555073d838290e877e0188a4a44700463419ed96c16107600660006101000a81548173ffffffffffffffffffffffffffffffffffffffff021916908373ffffffffffffffffffffffffffffffffffffffff160217905550730d500b1d8e8ef31e21c99d1db9a6444d3adf1270600760006101000a81548173ffffffffffffffffffffffffffffffffffffffff021916908373ffffffffffffffffffffffffffffffffffffffff160217905550732791bca1f2de4661ed88a30c99a7a9449aa84174600860006101000a81548173ffffffffffffffffffffffffffffffffffffffff021916908373ffffffffffffffffffffffffffffffffffffffff1602179055503480156101c357600080fd5b5061214b806101d36000396000f3fe6080604052600436106100ab5760003560e01c80637504fcfd116100645780637504fcfd146101d85780637b1c440114610203578063812be89b1461021f5780638cfde3001461024a578063df2d48df14610287578063feed5561146102b0576100b2565b8063037494eb146100b45780631f44cac7146100df57806336b310fa1461010a57806342e94c90146101335780634618fe0f14610170578063620d80eb1461019b576100b2565b366100b257005b005b3480156100c057600080fd5b506100c96102db565b6040516100d691906113de565b60405180910390f35b3480156100eb57600080fd5b506100f46102e1565b60405161010191906113de565b60405180910390f35b34801561011657600080fd5b50610131600480360381019061012c9190611497565b6102e7565b005b34801561013f57600080fd5b5061015a600480360381019061015591906114d7565b6103c6565b60405161016791906113de565b60405180910390f35b34801561017c57600080fd5b506101856103de565b60405161019291906115c2565b60405180910390f35b3480156101a757600080fd5b506101c260048036038101906101bd91906115e4565b61046c565b6040516101cf9190611620565b60405180910390f35b3480156101e457600080fd5b506101ed6104ab565b6040516101fa9190611620565b60405180910390f35b61021d600480360381019061021891906115e4565b6104d1565b005b34801561022b57600080fd5b5061023461052e565b60405161024191906113de565b60405180910390f35b34801561025657600080fd5b50610271600480360381019061026c9190611497565b610538565b60405161027e91906113de565b60405180910390f35b34801561029357600080fd5b506102ae60048036038101906102a991906117d9565b610678565b005b3480156102bc57600080fd5b506102c56106d8565b6040516102d291906113de565b60405180910390f35b60035481565b60025481565b600660009054906101000a900473ffffffffffffffffffffffffffffffffffffffff1673ffffffffffffffffffffffffffffffffffffffff168273ffffffffffffffffffffffffffffffffffffffff160361036e576103693330838573ffffffffffffffffffffffffffffffffffffffff166106e5909392919063ffffffff16565b610379565b610378828261076e565b5b610382816109d7565b61038b81610af2565b7fc5827255bcea744902002c36009c5dd9064202fe59041c48750adc5e0264c355816040516103ba91906118a5565b60405180910390a15050565b60006020528060005260406000206000915090505481565b6060600180548060200260200160405190810160405280929190818152602001828054801561046257602002820191906000526020600020905b8160009054906101000a900473ffffffffffffffffffffffffffffffffffffffff1673ffffffffffffffffffffffffffffffffffffffff1681526020019060010190808311610418575b5050505050905090565b6001818154811061047c57600080fd5b906000526020600020016000915054906101000a900473ffffffffffffffffffffffffffffffffffffffff1681565b600460009054906101000a900473ffffffffffffffffffffffffffffffffffffffff1681565b6104da81610bb8565b6104e3816109d7565b6104ec81610af2565b6104f4610d80565b7fc5827255bcea744902002c36009c5dd9064202fe59041c48750adc5e0264c35581604051610523919061191f565b60405180910390a150565b6000600354905090565b6000600660009054906101000a900473ffffffffffffffffffffffffffffffffffffffff1673ffffffffffffffffffffffffffffffffffffffff168373ffffffffffffffffffffffffffffffffffffffff160361059757819050610672565b60006105a284610e2f565b90506000600560009054906101000a900473ffffffffffffffffffffffffffffffffffffffff16905060008173ffffffffffffffffffffffffffffffffffffffff16631f00ca7486856040518363ffffffff1660e01b815260040161060892919061194d565b600060405180830381865afa158015610625573d6000803e3d6000fd5b505050506040513d6000823e3d601f19601f8201168201806040525081019061064e9190611a5a565b90508060008151811061066457610663611aa3565b5b602002602001015193505050505b92915050565b806003600082825461068a9190611b01565b925050819055507ffd7a2147cc41597bbdec0c3bf81c8e695607b2750b3caf9907de362623e48c52838051906020012083836040516106cb93929190611ba9565b60405180910390a1505050565b6000600180549050905090565b610768846323b872dd60e01b85858560405160240161070693929190611bf3565b604051602081830303815290604052907bffffffffffffffffffffffffffffffffffffffffffffffffffffffff19166020820180517bffffffffffffffffffffffffffffffffffffffffffffffffffffffff8381831617835250505050611148565b50505050565b6000600560009054906101000a900473ffffffffffffffffffffffffffffffffffffffff16905060006107a084610e2f565b905060008273ffffffffffffffffffffffffffffffffffffffff16631f00ca7485846040518363ffffffff1660e01b81526004016107df92919061194d565b600060405180830381865afa1580156107fc573d6000803e3d6000fd5b505050506040513d6000823e3d601f19601f820116820180604052508101906108259190611a5a565b905061086f3330836000815181106108405761083f611aa3565b5b60200260200101518873ffffffffffffffffffffffffffffffffffffffff166106e5909392919063ffffffff16565b8473ffffffffffffffffffffffffffffffffffffffff1663095ea7b3600560009054906101000a900473ffffffffffffffffffffffffffffffffffffffff16836000815181106108c2576108c1611aa3565b5b60200260200101516040518363ffffffff1660e01b81526004016108e7929190611c2a565b6020604051808303816000875af1158015610906573d6000803e3d6000fd5b505050506040513d601f19601f8201168201806040525081019061092a9190611c8b565b508273ffffffffffffffffffffffffffffffffffffffff16638803dbee858360008151811061095c5761095b611aa3565b5b60200260200101518530426040518663ffffffff1660e01b8152600401610987959493929190611cb8565b6000604051808303816000875af11580156109a6573d6000803e3d6000fd5b505050506040513d6000823e3d601f19601f820116820180604052508101906109cf9190611a5a565b505050505050565b80600260008282546109e99190611b01565b9250508190555060008060003373ffffffffffffffffffffffffffffffffffffffff1673ffffffffffffffffffffffffffffffffffffffff1681526020019081526020016000205403610a9a576001339080600181540180825580915050600190039060005260206000200160009091909190916101000a81548173ffffffffffffffffffffffffffffffffffffffff021916908373ffffffffffffffffffffffffffffffffffffffff1602179055505b806000803373ffffffffffffffffffffffffffffffffffffffff1673ffffffffffffffffffffffffffffffffffffffff1681526020019081526020016000206000828254610ae89190611b01565b9250508190555050565b600660009054906101000a900473ffffffffffffffffffffffffffffffffffffffff1673ffffffffffffffffffffffffffffffffffffffff1663a9059cbb600460009054906101000a900473ffffffffffffffffffffffffffffffffffffffff16836040518363ffffffff1660e01b8152600401610b71929190611c2a565b6020604051808303816000875af1158015610b90573d6000803e3d6000fd5b505050506040513d601f19601f82011682018060405250810190610bb49190611c8b565b5050565b6000600560009054906101000a900473ffffffffffffffffffffffffffffffffffffffff1690506000610c0c600760009054906101000a900473ffffffffffffffffffffffffffffffffffffffff16610e2f565b905060008273ffffffffffffffffffffffffffffffffffffffff16631f00ca7485846040518363ffffffff1660e01b8152600401610c4b92919061194d565b600060405180830381865afa158015610c68573d6000803e3d6000fd5b505050506040513d6000823e3d601f19601f82011682018060405250810190610c919190611a5a565b905080600081518110610ca757610ca6611aa3565b5b6020026020010151341015610cf1576040517f08c379a0000000000000000000000000000000000000000000000000000000008152600401610ce890611d84565b60405180910390fd5b8273ffffffffffffffffffffffffffffffffffffffff1663fb3bdb4134868530426040518663ffffffff1660e01b8152600401610d319493929190611da4565b60006040518083038185885af1158015610d4f573d6000803e3d6000fd5b50505050506040513d6000823e3d601f19601f82011682018060405250810190610d799190611a5a565b5050505050565b60003373ffffffffffffffffffffffffffffffffffffffff1647604051610da690611e21565b60006040518083038185875af1925050503d8060008114610de3576040519150601f19603f3d011682016040523d82523d6000602084013e610de8565b606091505b5050905080610e2c576040517f08c379a0000000000000000000000000000000000000000000000000000000008152600401610e2390611e82565b60405180910390fd5b50565b6060600860009054906101000a900473ffffffffffffffffffffffffffffffffffffffff1673ffffffffffffffffffffffffffffffffffffffff168273ffffffffffffffffffffffffffffffffffffffff1603610fbf576000600267ffffffffffffffff811115610ea357610ea2611656565b5b604051908082528060200260200182016040528015610ed15781602001602082028036833780820191505090505b509050600860009054906101000a900473ffffffffffffffffffffffffffffffffffffffff1681600081518110610f0b57610f0a611aa3565b5b602002602001019073ffffffffffffffffffffffffffffffffffffffff16908173ffffffffffffffffffffffffffffffffffffffff1681525050600660009054906101000a900473ffffffffffffffffffffffffffffffffffffffff1681600181518110610f7c57610f7b611aa3565b5b602002602001019073ffffffffffffffffffffffffffffffffffffffff16908173ffffffffffffffffffffffffffffffffffffffff168152505080915050611143565b6000600367ffffffffffffffff811115610fdc57610fdb611656565b5b60405190808252806020026020018201604052801561100a5781602001602082028036833780820191505090505b509050828160008151811061102257611021611aa3565b5b602002602001019073ffffffffffffffffffffffffffffffffffffffff16908173ffffffffffffffffffffffffffffffffffffffff1681525050600860009054906101000a900473ffffffffffffffffffffffffffffffffffffffff168160018151811061109357611092611aa3565b5b602002602001019073ffffffffffffffffffffffffffffffffffffffff16908173ffffffffffffffffffffffffffffffffffffffff1681525050600660009054906101000a900473ffffffffffffffffffffffffffffffffffffffff168160028151811061110457611103611aa3565b5b602002602001019073ffffffffffffffffffffffffffffffffffffffff16908173ffffffffffffffffffffffffffffffffffffffff1681525050809150505b919050565b60006111aa826040518060400160405280602081526020017f5361666545524332303a206c6f772d6c6576656c2063616c6c206661696c65648152508573ffffffffffffffffffffffffffffffffffffffff1661120f9092919063ffffffff16565b905060008151111561120a57808060200190518101906111ca9190611c8b565b611209576040517f08c379a000000000000000000000000000000000000000000000000000000000815260040161120090611f14565b60405180910390fd5b5b505050565b606061121e8484600085611227565b90509392505050565b60608247101561126c576040517f08c379a000000000000000000000000000000000000000000000000000000000815260040161126390611fa6565b60405180910390fd5b6112758561133b565b6112b4576040517f08c379a00000000000000000000000000000000000000000000000000000000081526004016112ab90612012565b60405180910390fd5b6000808673ffffffffffffffffffffffffffffffffffffffff1685876040516112dd9190612098565b60006040518083038185875af1925050503d806000811461131a576040519150601f19603f3d011682016040523d82523d6000602084013e61131f565b606091505b509150915061132f82828661135e565b92505050949350505050565b6000808273ffffffffffffffffffffffffffffffffffffffff163b119050919050565b6060831561136e578290506113be565b6000835111156113815782518084602001fd5b816040517f08c379a00000000000000000000000000000000000000000000000000000000081526004016113b591906120f3565b60405180910390fd5b9392505050565b6000819050919050565b6113d8816113c5565b82525050565b60006020820190506113f360008301846113cf565b92915050565b6000604051905090565b600080fd5b600080fd5b600073ffffffffffffffffffffffffffffffffffffffff82169050919050565b60006114388261140d565b9050919050565b6114488161142d565b811461145357600080fd5b50565b6000813590506114658161143f565b92915050565b611474816113c5565b811461147f57600080fd5b50565b6000813590506114918161146b565b92915050565b600080604083850312156114ae576114ad611403565b5b60006114bc85828601611456565b92505060206114cd85828601611482565b9150509250929050565b6000602082840312156114ed576114ec611403565b5b60006114fb84828501611456565b91505092915050565b600081519050919050565b600082825260208201905092915050565b6000819050602082019050919050565b6115398161142d565b82525050565b600061154b8383611530565b60208301905092915050565b6000602082019050919050565b600061156f82611504565b611579818561150f565b935061158483611520565b8060005b838110156115b557815161159c888261153f565b97506115a783611557565b925050600181019050611588565b5085935050505092915050565b600060208201905081810360008301526115dc8184611564565b905092915050565b6000602082840312156115fa576115f9611403565b5b600061160884828501611482565b91505092915050565b61161a8161142d565b82525050565b60006020820190506116356000830184611611565b92915050565b600080fd5b600080fd5b6000601f19601f8301169050919050565b7f4e487b7100000000000000000000000000000000000000000000000000000000600052604160045260246000fd5b61168e82611645565b810181811067ffffffffffffffff821117156116ad576116ac611656565b5b80604052505050565b60006116c06113f9565b90506116cc8282611685565b919050565b600067ffffffffffffffff8211156116ec576116eb611656565b5b6116f582611645565b9050602081019050919050565b82818337600083830152505050565b600061172461171f846116d1565b6116b6565b9050828152602081018484840111156117405761173f611640565b5b61174b848285611702565b509392505050565b600082601f8301126117685761176761163b565b5b8135611778848260208601611711565b91505092915050565b60007fffffffffffffffff00000000000000000000000000000000000000000000000082169050919050565b6117b681611781565b81146117c157600080fd5b50565b6000813590506117d3816117ad565b92915050565b6000806000606084860312156117f2576117f1611403565b5b600084013567ffffffffffffffff8111156118105761180f611408565b5b61181c86828701611753565b935050602061182d868287016117c4565b925050604061183e86828701611482565b9150509250925092565b600082825260208201905092915050565b7f546f6b656e000000000000000000000000000000000000000000000000000000600082015250565b600061188f600583611848565b915061189a82611859565b602082019050919050565b600060408201905081810360008301526118be81611882565b90506118cd60208301846113cf565b92915050565b7f4d61746963000000000000000000000000000000000000000000000000000000600082015250565b6000611909600583611848565b9150611914826118d3565b602082019050919050565b60006040820190508181036000830152611938816118fc565b905061194760208301846113cf565b92915050565b600060408201905061196260008301856113cf565b81810360208301526119748184611564565b90509392505050565b600067ffffffffffffffff82111561199857611997611656565b5b602082029050602081019050919050565b600080fd5b6000815190506119bd8161146b565b92915050565b60006119d66119d18461197d565b6116b6565b905080838252602082019050602084028301858111156119f9576119f86119a9565b5b835b81811015611a225780611a0e88826119ae565b8452602084019350506020810190506119fb565b5050509392505050565b600082601f830112611a4157611a4061163b565b5b8151611a518482602086016119c3565b91505092915050565b600060208284031215611a7057611a6f611403565b5b600082015167ffffffffffffffff811115611a8e57611a8d611408565b5b611a9a84828501611a2c565b91505092915050565b7f4e487b7100000000000000000000000000000000000000000000000000000000600052603260045260246000fd5b7f4e487b7100000000000000000000000000000000000000000000000000000000600052601160045260246000fd5b6000611b0c826113c5565b9150611b17836113c5565b9250828201905080821115611b2f57611b2e611ad2565b5b92915050565b6000819050919050565b611b4881611b35565b82525050565b611b5781611781565b82525050565b7f4e43540000000000000000000000000000000000000000000000000000000000600082015250565b6000611b93600383611848565b9150611b9e82611b5d565b602082019050919050565b6000608082019050611bbe6000830186611b3f565b611bcb6020830185611b4e565b8181036040830152611bdc81611b86565b9050611beb60608301846113cf565b949350505050565b6000606082019050611c086000830186611611565b611c156020830185611611565b611c2260408301846113cf565b949350505050565b6000604082019050611c3f6000830185611611565b611c4c60208301846113cf565b9392505050565b60008115159050919050565b611c6881611c53565b8114611c7357600080fd5b50565b600081519050611c8581611c5f565b92915050565b600060208284031215611ca157611ca0611403565b5b6000611caf84828501611c76565b91505092915050565b600060a082019050611ccd60008301886113cf565b611cda60208301876113cf565b8181036040830152611cec8186611564565b9050611cfb6060830185611611565b611d0860808301846113cf565b9695505050505050565b7f4e6f7420656e6f756768204d6174696320746f207377617020746f207265717560008201527f6972656420636172626f6e20546f6b656e000000000000000000000000000000602082015250565b6000611d6e603183611848565b9150611d7982611d12565b604082019050919050565b60006020820190508181036000830152611d9d81611d61565b9050919050565b6000608082019050611db960008301876113cf565b8181036020830152611dcb8186611564565b9050611dda6040830185611611565b611de760608301846113cf565b95945050505050565b600081905092915050565b50565b6000611e0b600083611df0565b9150611e1682611dfb565b600082019050919050565b6000611e2c82611dfe565b9150819050919050565b7f726566756e64206661696c656400000000000000000000000000000000000000600082015250565b6000611e6c600d83611848565b9150611e7782611e36565b602082019050919050565b60006020820190508181036000830152611e9b81611e5f565b9050919050565b7f5361666545524332303a204552433230206f7065726174696f6e20646964206e60008201527f6f74207375636365656400000000000000000000000000000000000000000000602082015250565b6000611efe602a83611848565b9150611f0982611ea2565b604082019050919050565b60006020820190508181036000830152611f2d81611ef1565b9050919050565b7f416464726573733a20696e73756666696369656e742062616c616e636520666f60008201527f722063616c6c0000000000000000000000000000000000000000000000000000602082015250565b6000611f90602683611848565b9150611f9b82611f34565b604082019050919050565b60006020820190508181036000830152611fbf81611f83565b9050919050565b7f416464726573733a2063616c6c20746f206e6f6e2d636f6e7472616374000000600082015250565b6000611ffc601d83611848565b915061200782611fc6565b602082019050919050565b6000602082019050818103600083015261202b81611fef565b9050919050565b600081519050919050565b60005b8381101561205b578082015181840152602081019050612040565b60008484015250505050565b600061207282612032565b61207c8185611df0565b935061208c81856020860161203d565b80840191505092915050565b60006120a48284612067565b915081905092915050565b600081519050919050565b60006120c5826120af565b6120cf8185611848565b93506120df81856020860161203d565b6120e881611645565b840191505092915050565b6000602082019050818103600083015261210d81846120ba565b90509291505056fea2646970667358221220ead85f1f7a18b603391206a3dbee6d646670353a755010122b34b5cbce7cb1af64736f6c63430008110033",
  "linkReferences": {},
  "deployedLinkReferences": {}
}