{
  "_format": "hh-sol-artifact-1",
  "contractName": "COP27_Offset_Pool",
  "sourceName": "contracts/carbon_offset_contract.sol",
  "abi": [
    {
      "anonymous": false,
      "inputs": [
        {
          "indexed": false,
          "internalType": "string",
          "name": "tokenOrCoin",
          "type": "string"
        },
        {
          "indexed": false,
          "internalType": "uint256",
          "name": "carbonTokenContributed",
          "type": "uint256"
        }
      ],
      "name": "ContributionSent",
      "type": "event"
    },
    {
      "anonymous": false,
      "inputs": [
        {
          "indexed": false,
          "internalType": "bytes32",
          "name": "email",
          "type": "bytes32"
        },
        {
          "indexed": false,
          "internalType": "bytes8",
          "name": "dep",
          "type": "bytes8"
        },
        {
          "indexed": false,
          "internalType": "string",
          "name": "token",
          "type": "string"
        },
        {
          "indexed": false,
          "internalType": "uint256",
          "name": "carbonTokenPledged",
          "type": "uint256"
        }
      ],
      "name": "OffsetPledgeCaptured",
      "type": "event"
    },
    {
      "stateMutability": "payable",
      "type": "fallback"
    },
    {
      "inputs": [
        {
          "internalType": "address",
          "name": "fromToken",
          "type": "address"
        },
        {
          "internalType": "uint256",
          "name": "carbonAmount",
          "type": "uint256"
        }
      ],
      "name": "calculateNeededAmount",
      "outputs": [
        {
          "internalType": "uint256",
          "name": "",
          "type": "uint256"
        }
      ],
      "stateMutability": "view",
      "type": "function"
    },
    {
      "inputs": [
        {
          "internalType": "bytes",
          "name": "email",
          "type": "bytes"
        },
        {
          "internalType": "bytes8",
          "name": "dep",
          "type": "bytes8"
        },
        {
          "internalType": "uint256",
          "name": "carbonTokenPledged",
          "type": "uint256"
        }
      ],
      "name": "capturePledge",
      "outputs": [],
      "stateMutability": "nonpayable",
      "type": "function"
    },
    {
      "inputs": [
        {
          "internalType": "address",
          "name": "",
          "type": "address"
        }
      ],
      "name": "contributions",
      "outputs": [
        {
          "internalType": "uint256",
          "name": "",
          "type": "uint256"
        }
      ],
      "stateMutability": "view",
      "type": "function"
    },
    {
      "inputs": [
        {
          "internalType": "uint256",
          "name": "",
          "type": "uint256"
        }
      ],
      "name": "contributorsAddresses",
      "outputs": [
        {
          "internalType": "address",
          "name": "",
          "type": "address"
        }
      ],
      "stateMutability": "view",
      "type": "function"
    },
    {
      "inputs": [],
      "name": "getContributorsAddresses",
      "outputs": [
        {
          "internalType": "address[]",
          "name": "",
          "type": "address[]"
        }
      ],
      "stateMutability": "view",
      "type": "function"
    },
    {
      "inputs": [],
      "name": "getContributorsCount",
      "outputs": [
        {
          "internalType": "uint256",
          "name": "",
          "type": "uint256"
        }
      ],
      "stateMutability": "view",
      "type": "function"
    },
    {
      "inputs": [],
      "name": "getPledgeAmount",
      "outputs": [
        {
          "internalType": "uint256",
          "name": "",
          "type": "uint256"
        }
      ],
      "stateMutability": "view",
      "type": "function"
    },
    {
      "inputs": [
        {
          "internalType": "uint256",
          "name": "carbonAmount",
          "type": "uint256"
        }
      ],
      "name": "participateWithMatic",
      "outputs": [],
      "stateMutability": "payable",
      "type": "function"
    },
    {
      "inputs": [
        {
          "internalType": "address",
          "name": "fromToken",
          "type": "address"
        },
        {
          "internalType": "uint256",
          "name": "carbonAmount",
          "type": "uint256"
        }
      ],
      "name": "participateWithToken",
      "outputs": [],
      "stateMutability": "nonpayable",
      "type": "function"
    },
    {
      "inputs": [],
      "name": "poolingAddress",
      "outputs": [
        {
          "internalType": "address",
          "name": "",
          "type": "address"
        }
      ],
      "stateMutability": "view",
      "type": "function"
    },
    {
      "inputs": [],
      "name": "totalCarbonPledged",
      "outputs": [
        {
          "internalType": "uint256",
          "name": "",
          "type": "uint256"
        }
      ],
      "stateMutability": "view",
      "type": "function"
    },
    {
      "inputs": [],
      "name": "totalCarbonPooled",
      "outputs": [
        {
          "internalType": "uint256",
          "name": "",
          "type": "uint256"
        }
      ],
      "stateMutability": "view",
      "type": "function"
    },
    {
      "stateMutability": "payable",
      "type": "receive"
    }
  ],
  "bytecode": "0x608060405260006002819055600355600480546001600160a01b03199081167338515e69405866245fc9778395de7cecc999382a17909155600580548216731b02da8cb0d097eb8d57a175b88c7d8b4799750617905560068054821673d838290e877e0188a4a44700463419ed96c16107179055600780548216730d500b1d8e8ef31e21c99d1db9a6444d3adf127017905560088054909116732791bca1f2de4661ed88a30c99a7a9449aa841741790553480156100bc57600080fd5b50611308806100cc6000396000f3fe6080604052600436106100a55760003560e01c80637504fcfd116100615780637504fcfd146101945780637b1c4401146101b4578063812be89b146101c75780638cfde300146101dc578063df2d48df146101fc578063feed55611461021c57005b8063037494eb146100ae5780631f44cac7146100d757806336b310fa146100ed57806342e94c901461010d5780634618fe0f1461013a578063620d80eb1461015c57005b366100ac57005b005b3480156100ba57600080fd5b506100c460035481565b6040519081526020015b60405180910390f35b3480156100e357600080fd5b506100c460025481565b3480156100f957600080fd5b506100ac610108366004610f06565b610231565b34801561011957600080fd5b506100c4610128366004610f30565b60006020819052908152604090205481565b34801561014657600080fd5b5061014f6102cf565b6040516100ce9190610f8f565b34801561016857600080fd5b5061017c610177366004610fa2565b610331565b6040516001600160a01b0390911681526020016100ce565b3480156101a057600080fd5b5060045461017c906001600160a01b031681565b6100ac6101c2366004610fa2565b61035b565b3480156101d357600080fd5b506003546100c4565b3480156101e857600080fd5b506100c46101f7366004610f06565b6103cf565b34801561020857600080fd5b506100ac61021736600461101a565b6104af565b34801561022857600080fd5b506001546100c4565b6006546001600160a01b03838116911614156102615761025c6001600160a01b038316333084610542565b61026b565b61026b82826105a2565b610274816107de565b61027d81610872565b60408051818152600581830152642a37b5b2b760d91b60608201526020810183905290517fc5827255bcea744902002c36009c5dd9064202fe59041c48750adc5e0264c3559181900360800190a15050565b6060600180548060200260200160405190810160405280929190818152602001828054801561032757602002820191906000526020600020905b81546001600160a01b03168152600190910190602001808311610309575b5050505050905090565b6001818154811061034157600080fd5b6000918252602090912001546001600160a01b0316905081565b61036481610902565b61036d816107de565b61037681610872565b61037e610ac3565b60408051818152600581830152644d6174696360d81b60608201526020810183905290517fc5827255bcea744902002c36009c5dd9064202fe59041c48750adc5e0264c3559181900360800190a150565b6006546000906001600160a01b03848116911614156103ef5750806104a9565b60006103fa84610b4e565b6005546040516307c0329d60e21b81529192506001600160a01b0316906000908290631f00ca749061043290889087906004016110c9565b60006040518083038186803b15801561044a57600080fd5b505afa15801561045e573d6000803e3d6000fd5b505050506040513d6000823e601f3d908101601f1916820160405261048691908101906110e2565b90508060008151811061049b5761049b611188565b602002602001015193505050505b92915050565b80600360008282546104c1919061119e565b9091555050825160208401206040517ffd7a2147cc41597bbdec0c3bf81c8e695607b2750b3caf9907de362623e48c529161053591859085909283526001600160c01b0319919091166020830152608060408301819052600390830152621390d560ea1b60a0830152606082015260c00190565b60405180910390a1505050565b604080516001600160a01b0385811660248301528416604482015260648082018490528251808303909101815260849091019091526020810180516001600160e01b03166323b872dd60e01b17905261059c908590610c95565b50505050565b6005546001600160a01b031660006105b984610b4e565b90506000826001600160a01b0316631f00ca7485846040518363ffffffff1660e01b81526004016105eb9291906110c9565b60006040518083038186803b15801561060357600080fd5b505afa158015610617573d6000803e3d6000fd5b505050506040513d6000823e601f3d908101601f1916820160405261063f91908101906110e2565b905061067b33308360008151811061065957610659611188565b6020026020010151886001600160a01b0316610542909392919063ffffffff16565b60055481516001600160a01b038088169263095ea7b39291169084906000906106a6576106a6611188565b60200260200101516040518363ffffffff1660e01b81526004016106df9291906001600160a01b03929092168252602082015260400190565b602060405180830381600087803b1580156106f957600080fd5b505af115801561070d573d6000803e3d6000fd5b505050506040513d601f19601f8201168201806040525081019061073191906111c4565b50826001600160a01b0316638803dbee858360008151811061075557610755611188565b60200260200101518530426040518663ffffffff1660e01b81526004016107809594939291906111e6565b600060405180830381600087803b15801561079a57600080fd5b505af11580156107ae573d6000803e3d6000fd5b505050506040513d6000823e601f3d908101601f191682016040526107d691908101906110e2565b505050505050565b80600260008282546107f0919061119e565b90915550503360009081526020819052604090205461084b576001805480820182556000919091527fb10e2d527612073b26eecdfd717e6a320cf44b4afac2b0732d9fcbe2b7fa0cf60180546001600160a01b031916331790555b336000908152602081905260408120805483929061086a90849061119e565b909155505050565b6006546004805460405163a9059cbb60e01b81526001600160a01b0391821692810192909252602482018490529091169063a9059cbb90604401602060405180830381600087803b1580156108c657600080fd5b505af11580156108da573d6000803e3d6000fd5b505050506040513d601f19601f820116820180604052508101906108fe91906111c4565b5050565b6005546007546001600160a01b03918216916000916109219116610b4e565b90506000826001600160a01b0316631f00ca7485846040518363ffffffff1660e01b81526004016109539291906110c9565b60006040518083038186803b15801561096b57600080fd5b505afa15801561097f573d6000803e3d6000fd5b505050506040513d6000823e601f3d908101601f191682016040526109a791908101906110e2565b9050806000815181106109bc576109bc611188565b6020026020010151341015610a325760405162461bcd60e51b815260206004820152603160248201527f4e6f7420656e6f756768204d6174696320746f207377617020746f207265717560448201527034b932b21031b0b93137b7102a37b5b2b760791b60648201526084015b60405180910390fd5b60405163fb3bdb4160e01b81526001600160a01b0384169063fb3bdb41903490610a66908890879030904290600401611222565b6000604051808303818588803b158015610a7f57600080fd5b505af1158015610a93573d6000803e3d6000fd5b50505050506040513d6000823e601f3d908101601f19168201604052610abc91908101906110e2565b5050505050565b604051600090339047908381818185875af1925050503d8060008114610b05576040519150601f19603f3d011682016040523d82523d6000602084013e610b0a565b606091505b5050905080610b4b5760405162461bcd60e51b815260206004820152600d60248201526c1c99599d5b990819985a5b1959609a1b6044820152606401610a29565b50565b6008546060906001600160a01b0383811691161415610bf757604080516002808252606082018352600092602083019080368337505060085482519293506001600160a01b031691839150600090610ba857610ba8611188565b6001600160a01b039283166020918202929092010152600654825191169082906001908110610bd957610bd9611188565b6001600160a01b039092166020928302919091019091015292915050565b60408051600380825260808201909252600091602082016060803683370190505090508281600081518110610c2e57610c2e611188565b6001600160a01b039283166020918202929092010152600854825191169082906001908110610c5f57610c5f611188565b6001600160a01b039283166020918202929092010152600654825191169082906002908110610bd957610bd9611188565b919050565b6000610cea826040518060400160405280602081526020017f5361666545524332303a206c6f772d6c6576656c2063616c6c206661696c6564815250856001600160a01b0316610d6c9092919063ffffffff16565b805190915015610d675780806020019051810190610d0891906111c4565b610d675760405162461bcd60e51b815260206004820152602a60248201527f5361666545524332303a204552433230206f7065726174696f6e20646964206e6044820152691bdd081cdd58d8d9595960b21b6064820152608401610a29565b505050565b6060610d7b8484600085610d85565b90505b9392505050565b606082471015610de65760405162461bcd60e51b815260206004820152602660248201527f416464726573733a20696e73756666696369656e742062616c616e636520666f6044820152651c8818d85b1b60d21b6064820152608401610a29565b6001600160a01b0385163b610e3d5760405162461bcd60e51b815260206004820152601d60248201527f416464726573733a2063616c6c20746f206e6f6e2d636f6e74726163740000006044820152606401610a29565b600080866001600160a01b03168587604051610e599190611283565b60006040518083038185875af1925050503d8060008114610e96576040519150601f19603f3d011682016040523d82523d6000602084013e610e9b565b606091505b5091509150610eab828286610eb6565b979650505050505050565b60608315610ec5575081610d7e565b825115610ed55782518084602001fd5b8160405162461bcd60e51b8152600401610a29919061129f565b80356001600160a01b0381168114610c9057600080fd5b60008060408385031215610f1957600080fd5b610f2283610eef565b946020939093013593505050565b600060208284031215610f4257600080fd5b610d7e82610eef565b600081518084526020808501945080840160005b83811015610f845781516001600160a01b031687529582019590820190600101610f5f565b509495945050505050565b602081526000610d7e6020830184610f4b565b600060208284031215610fb457600080fd5b5035919050565b634e487b7160e01b600052604160045260246000fd5b604051601f8201601f1916810167ffffffffffffffff81118282101715610ffa57610ffa610fbb565b604052919050565b80356001600160c01b031981168114610c9057600080fd5b60008060006060848603121561102f57600080fd5b833567ffffffffffffffff8082111561104757600080fd5b818601915086601f83011261105b57600080fd5b813560208282111561106f5761106f610fbb565b611081601f8301601f19168201610fd1565b9250818352888183860101111561109757600080fd5b818185018285013760008183850101528296506110b5818901611002565b955050505050604084013590509250925092565b828152604060208201526000610d7b6040830184610f4b565b600060208083850312156110f557600080fd5b825167ffffffffffffffff8082111561110d57600080fd5b818501915085601f83011261112157600080fd5b81518181111561113357611133610fbb565b8060051b9150611144848301610fd1565b818152918301840191848101908884111561115e57600080fd5b938501935b8385101561117c57845182529385019390850190611163565b98975050505050505050565b634e487b7160e01b600052603260045260246000fd5b600082198211156111bf57634e487b7160e01b600052601160045260246000fd5b500190565b6000602082840312156111d657600080fd5b81518015158114610d7e57600080fd5b85815284602082015260a06040820152600061120560a0830186610f4b565b6001600160a01b0394909416606083015250608001529392505050565b84815260806020820152600061123b6080830186610f4b565b6001600160a01b03949094166040830152506060015292915050565b60005b8381101561127257818101518382015260200161125a565b8381111561059c5750506000910152565b60008251611295818460208701611257565b9190910192915050565b60208152600082518060208401526112be816040850160208701611257565b601f01601f1916919091016040019291505056fea2646970667358221220bcf47e120606fdb5f4ff9f3d1daf894c27cd7e51f3f5b6fa2f32cf68742a617664736f6c63430008090033",
  "linkReferences": {},
  "deployedLinkReferences": {}
}