{
  "_format": "hh-sol-artifact-1",
  "contractName": "COP27_Offset_Pool",
  "sourceName": "contracts/carbon_offset_contract.sol",
  "abi": [
    {
      "inputs": [
        {
          "internalType": "address",
          "name": "forwarder",
          "type": "address"
        }
      ],
      "stateMutability": "nonpayable",
      "type": "constructor"
    },
    {
      "anonymous": false,
      "inputs": [
        {
          "indexed": false,
          "internalType": "string",
          "name": "tokenOrCoin",
          "type": "string"
        },
        {
          "indexed": false,
          "internalType": "uint256",
          "name": "carbonTokenContributed",
          "type": "uint256"
        }
      ],
      "name": "ContributionSent",
      "type": "event"
    },
    {
      "anonymous": false,
      "inputs": [
        {
          "indexed": false,
          "internalType": "address",
          "name": "pledger",
          "type": "address"
        },
        {
          "indexed": false,
          "internalType": "string",
          "name": "token",
          "type": "string"
        },
        {
          "indexed": false,
          "internalType": "uint256",
          "name": "carbonTokenPledged",
          "type": "uint256"
        }
      ],
      "name": "OffsetPledgeCaptured",
      "type": "event"
    },
    {
      "stateMutability": "payable",
      "type": "fallback"
    },
    {
      "inputs": [
        {
          "internalType": "address",
          "name": "fromToken",
          "type": "address"
        },
        {
          "internalType": "uint256",
          "name": "carbonAmount",
          "type": "uint256"
        }
      ],
      "name": "calculateNeededAmount",
      "outputs": [
        {
          "internalType": "uint256",
          "name": "",
          "type": "uint256"
        }
      ],
      "stateMutability": "view",
      "type": "function"
    },
    {
      "inputs": [
        {
          "internalType": "uint256",
          "name": "amountPledged",
          "type": "uint256"
        }
      ],
      "name": "capturePledge",
      "outputs": [],
      "stateMutability": "nonpayable",
      "type": "function"
    },
    {
      "inputs": [
        {
          "internalType": "address",
          "name": "",
          "type": "address"
        }
      ],
      "name": "contributions",
      "outputs": [
        {
          "internalType": "uint256",
          "name": "",
          "type": "uint256"
        }
      ],
      "stateMutability": "view",
      "type": "function"
    },
    {
      "inputs": [
        {
          "internalType": "uint256",
          "name": "",
          "type": "uint256"
        }
      ],
      "name": "contributorsAddresses",
      "outputs": [
        {
          "internalType": "address",
          "name": "",
          "type": "address"
        }
      ],
      "stateMutability": "view",
      "type": "function"
    },
    {
      "inputs": [],
      "name": "getContributorsAddresses",
      "outputs": [
        {
          "internalType": "address[]",
          "name": "",
          "type": "address[]"
        }
      ],
      "stateMutability": "view",
      "type": "function"
    },
    {
      "inputs": [],
      "name": "getContributorsCount",
      "outputs": [
        {
          "internalType": "uint256",
          "name": "",
          "type": "uint256"
        }
      ],
      "stateMutability": "view",
      "type": "function"
    },
    {
      "inputs": [],
      "name": "getPledgeAmount",
      "outputs": [
        {
          "internalType": "uint256",
          "name": "",
          "type": "uint256"
        }
      ],
      "stateMutability": "view",
      "type": "function"
    },
    {
      "inputs": [
        {
          "internalType": "address",
          "name": "forwarder",
          "type": "address"
        }
      ],
      "name": "isTrustedForwarder",
      "outputs": [
        {
          "internalType": "bool",
          "name": "",
          "type": "bool"
        }
      ],
      "stateMutability": "view",
      "type": "function"
    },
    {
      "inputs": [
        {
          "internalType": "uint256",
          "name": "carbonAmount",
          "type": "uint256"
        }
      ],
      "name": "participateWithMatic",
      "outputs": [],
      "stateMutability": "payable",
      "type": "function"
    },
    {
      "inputs": [
        {
          "internalType": "address",
          "name": "fromToken",
          "type": "address"
        },
        {
          "internalType": "uint256",
          "name": "carbonAmount",
          "type": "uint256"
        }
      ],
      "name": "participateWithToken",
      "outputs": [],
      "stateMutability": "nonpayable",
      "type": "function"
    },
    {
      "inputs": [
        {
          "internalType": "uint256",
          "name": "",
          "type": "uint256"
        }
      ],
      "name": "pledgersAddresses",
      "outputs": [
        {
          "internalType": "address",
          "name": "",
          "type": "address"
        }
      ],
      "stateMutability": "view",
      "type": "function"
    },
    {
      "inputs": [
        {
          "internalType": "address",
          "name": "",
          "type": "address"
        }
      ],
      "name": "pledges",
      "outputs": [
        {
          "internalType": "uint256",
          "name": "",
          "type": "uint256"
        }
      ],
      "stateMutability": "view",
      "type": "function"
    },
    {
      "inputs": [],
      "name": "poolingAddress",
      "outputs": [
        {
          "internalType": "address",
          "name": "",
          "type": "address"
        }
      ],
      "stateMutability": "view",
      "type": "function"
    },
    {
      "inputs": [],
      "name": "totalCarbonPledged",
      "outputs": [
        {
          "internalType": "uint256",
          "name": "",
          "type": "uint256"
        }
      ],
      "stateMutability": "view",
      "type": "function"
    },
    {
      "inputs": [],
      "name": "totalCarbonPooled",
      "outputs": [
        {
          "internalType": "uint256",
          "name": "",
          "type": "uint256"
        }
      ],
      "stateMutability": "view",
      "type": "function"
    },
    {
      "inputs": [],
      "name": "trustedForwarder",
      "outputs": [
        {
          "internalType": "address",
          "name": "",
          "type": "address"
        }
      ],
      "stateMutability": "view",
      "type": "function"
    },
    {
      "inputs": [],
      "name": "versionRecipient",
      "outputs": [
        {
          "internalType": "string",
          "name": "",
          "type": "string"
        }
      ],
      "stateMutability": "view",
      "type": "function"
    },
    {
      "stateMutability": "payable",
      "type": "receive"
    }
  ],
  "bytecode": "0x608060405260006003819055600655600780546001600160a01b03199081167338515e69405866245fc9778395de7cecc999382a17909155600880548216731b02da8cb0d097eb8d57a175b88c7d8b4799750617905560098054821673d838290e877e0188a4a44700463419ed96c16107179055600a80548216730d500b1d8e8ef31e21c99d1db9a6444d3adf1270179055600b8054909116732791bca1f2de4661ed88a30c99a7a9449aa841741790553480156100bc57600080fd5b506040516115c03803806115c08339810160408190526100db916100fc565b600080546001600160a01b0319166001600160a01b0383161790555061012c565b60006020828403121561010e57600080fd5b81516001600160a01b038116811461012557600080fd5b9392505050565b6114858061013b6000396000f3fe6080604052600436106100f65760003560e01c8063620d80eb1161008f578063812be89b11610061578063812be89b146102c45780638cfde300146102d95780639fa3749d146102f9578063f870b36314610319578063feed55611461033957005b8063620d80eb1461023b5780637504fcfd146102735780637b1c4401146102935780637da0a877146102a657005b806342e94c90116100c857806342e94c901461018b5780634618fe0f146101b8578063486ff0cd146101da578063572b6c05146101fc57005b8063037494eb146100ff5780631f44cac714610128578063343576f51461013e57806336b310fa1461016b57005b366100fd57005b005b34801561010b57600080fd5b5061011560065481565b6040519081526020015b60405180910390f35b34801561013457600080fd5b5061011560035481565b34801561014a57600080fd5b5061011561015936600461113c565b60046020526000908152604090205481565b34801561017757600080fd5b506100fd610186366004611157565b61034e565b34801561019757600080fd5b506101156101a636600461113c565b60016020526000908152604090205481565b3480156101c457600080fd5b506101cd6103f4565b60405161011f91906111c5565b3480156101e657600080fd5b506101ef610456565b60405161011f9190611204565b34801561020857600080fd5b5061022b61021736600461113c565b6000546001600160a01b0391821691161490565b604051901515815260200161011f565b34801561024757600080fd5b5061025b610256366004611237565b610476565b6040516001600160a01b03909116815260200161011f565b34801561027f57600080fd5b5060075461025b906001600160a01b031681565b6100fd6102a1366004611237565b6104a0565b3480156102b257600080fd5b506000546001600160a01b031661025b565b3480156102d057600080fd5b50600654610115565b3480156102e557600080fd5b506101156102f4366004611157565b610519565b34801561030557600080fd5b506100fd610314366004611237565b6105f9565b34801561032557600080fd5b5061025b610334366004611237565b610664565b34801561034557600080fd5b50600254610115565b6009546001600160a01b03838116911614156103865761038161036f610674565b6001600160a01b0384169030846106a8565b610390565b6103908282610708565b6103998161094b565b6103a281610a0e565b60408051818152600581830152642a37b5b2b760d91b60608201526020810183905290517fc5827255bcea744902002c36009c5dd9064202fe59041c48750adc5e0264c3559181900360800190a15050565b6060600280548060200260200160405190810160405280929190818152602001828054801561044c57602002820191906000526020600020905b81546001600160a01b0316815260019091019060200180831161042e575b5050505050905090565b606060405180606001604052806027815260200161142960279139905090565b6002818154811061048657600080fd5b6000918252602090912001546001600160a01b0316905081565b6104a981610a9a565b6104b28161094b565b6104bb81610a0e565b6104c3610c5b565b60408051818152600591810191909152644d6174696360d81b6060820152602081018290527fc5827255bcea744902002c36009c5dd9064202fe59041c48750adc5e0264c355906080015b60405180910390a150565b6009546000906001600160a01b03848116911614156105395750806105f3565b600061054484610cf8565b6008546040516307c0329d60e21b81529192506001600160a01b0316906000908290631f00ca749061057c9088908790600401611250565b60006040518083038186803b15801561059457600080fd5b505afa1580156105a8573d6000803e3d6000fd5b505050506040513d6000823e601f3d908101601f191682016040526105d0919081019061127f565b9050806000815181106105e5576105e561133d565b602002602001015193505050505b92915050565b61060281610e3f565b7fd4c8e2eccc619918b8d02ce6c3fab477cdb581963b40f9984ab5d849e69cddb861062b610674565b604080516001600160a01b039092168252606060208301819052600390830152621390d560ea1b6080830152810183905260a00161050e565b6005818154811061048657600080fd5b60006014361080159061069157506000546001600160a01b031633145b156106a3575060131936013560601c90565b503390565b604080516001600160a01b0385811660248301528416604482015260648082018490528251808303909101815260849091019091526020810180516001600160e01b03166323b872dd60e01b179052610702908590610ecb565b50505050565b6008546001600160a01b0316600061071f84610cf8565b90506000826001600160a01b0316631f00ca7485846040518363ffffffff1660e01b8152600401610751929190611250565b60006040518083038186803b15801561076957600080fd5b505afa15801561077d573d6000803e3d6000fd5b505050506040513d6000823e601f3d908101601f191682016040526107a5919081019061127f565b90506107e86107b2610674565b30836000815181106107c6576107c661133d565b6020026020010151886001600160a01b03166106a8909392919063ffffffff16565b60085481516001600160a01b038088169263095ea7b39291169084906000906108135761081361133d565b60200260200101516040518363ffffffff1660e01b815260040161084c9291906001600160a01b03929092168252602082015260400190565b602060405180830381600087803b15801561086657600080fd5b505af115801561087a573d6000803e3d6000fd5b505050506040513d601f19601f8201168201806040525081019061089e9190611353565b50826001600160a01b0316638803dbee85836000815181106108c2576108c261133d565b60200260200101518530426040518663ffffffff1660e01b81526004016108ed959493929190611375565b600060405180830381600087803b15801561090757600080fd5b505af115801561091b573d6000803e3d6000fd5b505050506040513d6000823e601f3d908101601f19168201604052610943919081019061127f565b505050505050565b806003600082825461095d91906113b1565b9091555060019050600061096f610674565b6001600160a01b031681526020810191909152604001600020546109ca576002610997610674565b81546001810183556000928352602090922090910180546001600160a01b0319166001600160a01b039092169190911790555b80600160006109d7610674565b6001600160a01b03166001600160a01b031681526020019081526020016000206000828254610a0691906113b1565b909155505050565b60095460075460405163a9059cbb60e01b81526001600160a01b0391821660048201526024810184905291169063a9059cbb90604401602060405180830381600087803b158015610a5e57600080fd5b505af1158015610a72573d6000803e3d6000fd5b505050506040513d601f19601f82011682018060405250810190610a969190611353565b5050565b600854600a546001600160a01b0391821691600091610ab99116610cf8565b90506000826001600160a01b0316631f00ca7485846040518363ffffffff1660e01b8152600401610aeb929190611250565b60006040518083038186803b158015610b0357600080fd5b505afa158015610b17573d6000803e3d6000fd5b505050506040513d6000823e601f3d908101601f19168201604052610b3f919081019061127f565b905080600081518110610b5457610b5461133d565b6020026020010151341015610bca5760405162461bcd60e51b815260206004820152603160248201527f4e6f7420656e6f756768204d6174696320746f207377617020746f207265717560448201527034b932b21031b0b93137b7102a37b5b2b760791b60648201526084015b60405180910390fd5b60405163fb3bdb4160e01b81526001600160a01b0384169063fb3bdb41903490610bfe9088908790309042906004016113d7565b6000604051808303818588803b158015610c1757600080fd5b505af1158015610c2b573d6000803e3d6000fd5b50505050506040513d6000823e601f3d908101601f19168201604052610c54919081019061127f565b5050505050565b6000610c65610674565b6001600160a01b03164760405160006040518083038185875af1925050503d8060008114610caf576040519150601f19603f3d011682016040523d82523d6000602084013e610cb4565b606091505b5050905080610cf55760405162461bcd60e51b815260206004820152600d60248201526c1c99599d5b990819985a5b1959609a1b6044820152606401610bc1565b50565b600b546060906001600160a01b0383811691161415610da1576040805160028082526060820183526000926020830190803683375050600b5482519293506001600160a01b031691839150600090610d5257610d5261133d565b6001600160a01b039283166020918202929092010152600954825191169082906001908110610d8357610d8361133d565b6001600160a01b039092166020928302919091019091015292915050565b60408051600380825260808201909252600091602082016060803683370190505090508281600081518110610dd857610dd861133d565b6001600160a01b039283166020918202929092010152600b54825191169082906001908110610e0957610e0961133d565b6001600160a01b039283166020918202929092010152600954825191169082906002908110610d8357610d8361133d565b919050565b8060066000828254610e5191906113b1565b90915550600490506000610e63610674565b6001600160a01b03168152602081019190915260400160002054610ebe576005610e8b610674565b81546001810183556000928352602090922090910180546001600160a01b0319166001600160a01b039092169190911790555b80600460006109d7610674565b6000610f20826040518060400160405280602081526020017f5361666545524332303a206c6f772d6c6576656c2063616c6c206661696c6564815250856001600160a01b0316610fa29092919063ffffffff16565b805190915015610f9d5780806020019051810190610f3e9190611353565b610f9d5760405162461bcd60e51b815260206004820152602a60248201527f5361666545524332303a204552433230206f7065726174696f6e20646964206e6044820152691bdd081cdd58d8d9595960b21b6064820152608401610bc1565b505050565b6060610fb18484600085610fbb565b90505b9392505050565b60608247101561101c5760405162461bcd60e51b815260206004820152602660248201527f416464726573733a20696e73756666696369656e742062616c616e636520666f6044820152651c8818d85b1b60d21b6064820152608401610bc1565b6001600160a01b0385163b6110735760405162461bcd60e51b815260206004820152601d60248201527f416464726573733a2063616c6c20746f206e6f6e2d636f6e74726163740000006044820152606401610bc1565b600080866001600160a01b0316858760405161108f919061140c565b60006040518083038185875af1925050503d80600081146110cc576040519150601f19603f3d011682016040523d82523d6000602084013e6110d1565b606091505b50915091506110e18282866110ec565b979650505050505050565b606083156110fb575081610fb4565b82511561110b5782518084602001fd5b8160405162461bcd60e51b8152600401610bc19190611204565b80356001600160a01b0381168114610e3a57600080fd5b60006020828403121561114e57600080fd5b610fb482611125565b6000806040838503121561116a57600080fd5b61117383611125565b946020939093013593505050565b600081518084526020808501945080840160005b838110156111ba5781516001600160a01b031687529582019590820190600101611195565b509495945050505050565b602081526000610fb46020830184611181565b60005b838110156111f35781810151838201526020016111db565b838111156107025750506000910152565b60208152600082518060208401526112238160408501602087016111d8565b601f01601f19169190910160400192915050565b60006020828403121561124957600080fd5b5035919050565b828152604060208201526000610fb16040830184611181565b634e487b7160e01b600052604160045260246000fd5b6000602080838503121561129257600080fd5b825167ffffffffffffffff808211156112aa57600080fd5b818501915085601f8301126112be57600080fd5b8151818111156112d0576112d0611269565b8060051b604051601f19603f830116810181811085821117156112f5576112f5611269565b60405291825284820192508381018501918883111561131357600080fd5b938501935b8285101561133157845184529385019392850192611318565b98975050505050505050565b634e487b7160e01b600052603260045260246000fd5b60006020828403121561136557600080fd5b81518015158114610fb457600080fd5b85815284602082015260a06040820152600061139460a0830186611181565b6001600160a01b0394909416606083015250608001529392505050565b600082198211156113d257634e487b7160e01b600052601160045260246000fd5b500190565b8481526080602082015260006113f06080830186611181565b6001600160a01b03949094166040830152506060015292915050565b6000825161141e8184602087016111d8565b919091019291505056fe322e322e352b6f70656e67736e2e726563697069656e742e6972656c6179726563697069656e74a2646970667358221220844363b3925cd9f9a7703f1b5c3871efadad16d686197f0ca23410db22cbfccd64736f6c63430008090033",
  "linkReferences": {},
  "deployedLinkReferences": {}
}