{
  "_format": "hh-sol-artifact-1",
  "contractName": "COP27_Offset_Pool",
  "sourceName": "contracts/carbon_offset_contract.sol",
  "abi": [
    {
      "inputs": [
        {
          "internalType": "address",
          "name": "forwarder",
          "type": "address"
        }
      ],
      "stateMutability": "nonpayable",
      "type": "constructor"
    },
    {
      "anonymous": false,
      "inputs": [
        {
          "indexed": false,
          "internalType": "string",
          "name": "tokenOrCoin",
          "type": "string"
        },
        {
          "indexed": false,
          "internalType": "uint256",
          "name": "carbonTokenContributed",
          "type": "uint256"
        }
      ],
      "name": "ContributionSent",
      "type": "event"
    },
    {
      "anonymous": false,
      "inputs": [
        {
          "indexed": false,
          "internalType": "address",
          "name": "pledger",
          "type": "address"
        },
        {
          "indexed": false,
          "internalType": "string",
          "name": "token",
          "type": "string"
        },
        {
          "indexed": false,
          "internalType": "uint256",
          "name": "carbonTokenPledged",
          "type": "uint256"
        }
      ],
      "name": "OffsetPledgeCaptured",
      "type": "event"
    },
    {
      "stateMutability": "payable",
      "type": "fallback"
    },
    {
      "inputs": [
        {
          "internalType": "address",
          "name": "fromToken",
          "type": "address"
        },
        {
          "internalType": "uint256",
          "name": "carbonAmount",
          "type": "uint256"
        }
      ],
      "name": "calculateNeededAmount",
      "outputs": [
        {
          "internalType": "uint256",
          "name": "",
          "type": "uint256"
        }
      ],
      "stateMutability": "view",
      "type": "function"
    },
    {
      "inputs": [
        {
          "internalType": "uint256",
          "name": "amountPledged",
          "type": "uint256"
        }
      ],
      "name": "capturePledge",
      "outputs": [],
      "stateMutability": "nonpayable",
      "type": "function"
    },
    {
      "inputs": [
        {
          "internalType": "address",
          "name": "",
          "type": "address"
        }
      ],
      "name": "contributions",
      "outputs": [
        {
          "internalType": "uint256",
          "name": "",
          "type": "uint256"
        }
      ],
      "stateMutability": "view",
      "type": "function"
    },
    {
      "inputs": [
        {
          "internalType": "uint256",
          "name": "",
          "type": "uint256"
        }
      ],
      "name": "contributorsAddresses",
      "outputs": [
        {
          "internalType": "address",
          "name": "",
          "type": "address"
        }
      ],
      "stateMutability": "view",
      "type": "function"
    },
    {
      "inputs": [],
      "name": "getContributors",
      "outputs": [
        {
          "internalType": "address[]",
          "name": "",
          "type": "address[]"
        }
      ],
      "stateMutability": "view",
      "type": "function"
    },
    {
      "inputs": [],
      "name": "getContributorsAddresses",
      "outputs": [
        {
          "internalType": "address[]",
          "name": "",
          "type": "address[]"
        }
      ],
      "stateMutability": "view",
      "type": "function"
    },
    {
      "inputs": [],
      "name": "getContributorsCount",
      "outputs": [
        {
          "internalType": "uint256",
          "name": "",
          "type": "uint256"
        }
      ],
      "stateMutability": "view",
      "type": "function"
    },
    {
      "inputs": [],
      "name": "getPledgeAmount",
      "outputs": [
        {
          "internalType": "uint256",
          "name": "",
          "type": "uint256"
        }
      ],
      "stateMutability": "view",
      "type": "function"
    },
    {
      "inputs": [],
      "name": "getPledgers",
      "outputs": [
        {
          "internalType": "address[]",
          "name": "",
          "type": "address[]"
        }
      ],
      "stateMutability": "view",
      "type": "function"
    },
    {
      "inputs": [
        {
          "internalType": "address",
          "name": "forwarder",
          "type": "address"
        }
      ],
      "name": "isTrustedForwarder",
      "outputs": [
        {
          "internalType": "bool",
          "name": "",
          "type": "bool"
        }
      ],
      "stateMutability": "view",
      "type": "function"
    },
    {
      "inputs": [
        {
          "internalType": "uint256",
          "name": "carbonAmount",
          "type": "uint256"
        }
      ],
      "name": "participateWithMatic",
      "outputs": [],
      "stateMutability": "payable",
      "type": "function"
    },
    {
      "inputs": [
        {
          "internalType": "address",
          "name": "fromToken",
          "type": "address"
        },
        {
          "internalType": "uint256",
          "name": "carbonAmount",
          "type": "uint256"
        }
      ],
      "name": "participateWithToken",
      "outputs": [],
      "stateMutability": "nonpayable",
      "type": "function"
    },
    {
      "inputs": [
        {
          "internalType": "uint256",
          "name": "",
          "type": "uint256"
        }
      ],
      "name": "pledgersAddresses",
      "outputs": [
        {
          "internalType": "address",
          "name": "",
          "type": "address"
        }
      ],
      "stateMutability": "view",
      "type": "function"
    },
    {
      "inputs": [
        {
          "internalType": "address",
          "name": "",
          "type": "address"
        }
      ],
      "name": "pledges",
      "outputs": [
        {
          "internalType": "uint256",
          "name": "",
          "type": "uint256"
        }
      ],
      "stateMutability": "view",
      "type": "function"
    },
    {
      "inputs": [],
      "name": "poolingAddress",
      "outputs": [
        {
          "internalType": "address",
          "name": "",
          "type": "address"
        }
      ],
      "stateMutability": "view",
      "type": "function"
    },
    {
      "inputs": [],
      "name": "totalCarbonPledged",
      "outputs": [
        {
          "internalType": "uint256",
          "name": "",
          "type": "uint256"
        }
      ],
      "stateMutability": "view",
      "type": "function"
    },
    {
      "inputs": [],
      "name": "totalCarbonPooled",
      "outputs": [
        {
          "internalType": "uint256",
          "name": "",
          "type": "uint256"
        }
      ],
      "stateMutability": "view",
      "type": "function"
    },
    {
      "inputs": [],
      "name": "trustedForwarder",
      "outputs": [
        {
          "internalType": "address",
          "name": "",
          "type": "address"
        }
      ],
      "stateMutability": "view",
      "type": "function"
    },
    {
      "inputs": [],
      "name": "versionRecipient",
      "outputs": [
        {
          "internalType": "string",
          "name": "",
          "type": "string"
        }
      ],
      "stateMutability": "pure",
      "type": "function"
    },
    {
      "stateMutability": "payable",
      "type": "receive"
    }
  ],
  "bytecode": "0x608060405260006003819055600655600780546001600160a01b03199081167338515e69405866245fc9778395de7cecc999382a17909155600880548216731b02da8cb0d097eb8d57a175b88c7d8b4799750617905560098054821673d838290e877e0188a4a44700463419ed96c16107179055600a80548216730d500b1d8e8ef31e21c99d1db9a6444d3adf1270179055600b8054909116732791bca1f2de4661ed88a30c99a7a9449aa841741790553480156100bc57600080fd5b5060405161164b38038061164b8339810160408190526100db916100fc565b600080546001600160a01b0319166001600160a01b0383161790555061012c565b60006020828403121561010e57600080fd5b81516001600160a01b038116811461012557600080fd5b9392505050565b6115108061013b6000396000f3fe60806040526004361061010c5760003560e01c8063620d80eb1161009a5780638cfde300116100615780638cfde300146103045780639fa3749d14610324578063af157c19146101f0578063f870b36314610344578063feed55611461036457005b8063620d80eb146102665780637504fcfd1461029e5780637b1c4401146102be5780637da0a877146102d1578063812be89b146102ef57005b806336b310fa116100de57806336b310fa146101a357806342e94c90146101c35780634618fe0f146101f0578063486ff0cd14610205578063572b6c051461022757005b8063037494eb14610115578063071743171461013e5780631f44cac714610160578063343576f51461017657005b3661011357005b005b34801561012157600080fd5b5061012b60065481565b6040519081526020015b60405180910390f35b34801561014a57600080fd5b50610153610379565b60405161013591906111f4565b34801561016c57600080fd5b5061012b60035481565b34801561018257600080fd5b5061012b61019136600461121e565b60046020526000908152604090205481565b3480156101af57600080fd5b506101136101be366004611239565b6103db565b3480156101cf57600080fd5b5061012b6101de36600461121e565b60016020526000908152604090205481565b3480156101fc57600080fd5b50610153610481565b34801561021157600080fd5b5061021a6104e1565b604051610135919061128f565b34801561023357600080fd5b5061025661024236600461121e565b6000546001600160a01b0391821691161490565b6040519015158152602001610135565b34801561027257600080fd5b506102866102813660046112c2565b610501565b6040516001600160a01b039091168152602001610135565b3480156102aa57600080fd5b50600754610286906001600160a01b031681565b6101136102cc3660046112c2565b61052b565b3480156102dd57600080fd5b506000546001600160a01b0316610286565b3480156102fb57600080fd5b5060065461012b565b34801561031057600080fd5b5061012b61031f366004611239565b6105a4565b34801561033057600080fd5b5061011361033f3660046112c2565b610684565b34801561035057600080fd5b5061028661035f3660046112c2565b6106ef565b34801561037057600080fd5b5060025461012b565b606060058054806020026020016040519081016040528092919081815260200182805480156103d157602002820191906000526020600020905b81546001600160a01b031681526001909101906020018083116103b3575b5050505050905090565b6009546001600160a01b03838116911614156104135761040e6103fc6106ff565b6001600160a01b038416903084610733565b61041d565b61041d8282610793565b610426816109d6565b61042f81610a99565b60408051818152600581830152642a37b5b2b760d91b60608201526020810183905290517fc5827255bcea744902002c36009c5dd9064202fe59041c48750adc5e0264c3559181900360800190a15050565b606060028054806020026020016040519081016040528092919081815260200182805480156103d1576020028201919060005260206000209081546001600160a01b031681526001909101906020018083116103b3575050505050905090565b60606040518060600160405280602781526020016114b460279139905090565b6002818154811061051157600080fd5b6000918252602090912001546001600160a01b0316905081565b61053481610b25565b61053d816109d6565b61054681610a99565b61054e610ce6565b60408051818152600591810191909152644d6174696360d81b6060820152602081018290527fc5827255bcea744902002c36009c5dd9064202fe59041c48750adc5e0264c355906080015b60405180910390a150565b6009546000906001600160a01b03848116911614156105c457508061067e565b60006105cf84610d83565b6008546040516307c0329d60e21b81529192506001600160a01b0316906000908290631f00ca749061060790889087906004016112db565b60006040518083038186803b15801561061f57600080fd5b505afa158015610633573d6000803e3d6000fd5b505050506040513d6000823e601f3d908101601f1916820160405261065b919081019061130a565b905080600081518110610670576106706113c8565b602002602001015193505050505b92915050565b61068d81610eca565b7fd4c8e2eccc619918b8d02ce6c3fab477cdb581963b40f9984ab5d849e69cddb86106b66106ff565b604080516001600160a01b039092168252606060208301819052600390830152621390d560ea1b6080830152810183905260a001610599565b6005818154811061051157600080fd5b60006014361080159061071c57506000546001600160a01b031633145b1561072e575060131936013560601c90565b503390565b604080516001600160a01b0385811660248301528416604482015260648082018490528251808303909101815260849091019091526020810180516001600160e01b03166323b872dd60e01b17905261078d908590610f56565b50505050565b6008546001600160a01b031660006107aa84610d83565b90506000826001600160a01b0316631f00ca7485846040518363ffffffff1660e01b81526004016107dc9291906112db565b60006040518083038186803b1580156107f457600080fd5b505afa158015610808573d6000803e3d6000fd5b505050506040513d6000823e601f3d908101601f19168201604052610830919081019061130a565b905061087361083d6106ff565b3083600081518110610851576108516113c8565b6020026020010151886001600160a01b0316610733909392919063ffffffff16565b60085481516001600160a01b038088169263095ea7b392911690849060009061089e5761089e6113c8565b60200260200101516040518363ffffffff1660e01b81526004016108d79291906001600160a01b03929092168252602082015260400190565b602060405180830381600087803b1580156108f157600080fd5b505af1158015610905573d6000803e3d6000fd5b505050506040513d601f19601f8201168201806040525081019061092991906113de565b50826001600160a01b0316638803dbee858360008151811061094d5761094d6113c8565b60200260200101518530426040518663ffffffff1660e01b8152600401610978959493929190611400565b600060405180830381600087803b15801561099257600080fd5b505af11580156109a6573d6000803e3d6000fd5b505050506040513d6000823e601f3d908101601f191682016040526109ce919081019061130a565b505050505050565b80600360008282546109e8919061143c565b909155506001905060006109fa6106ff565b6001600160a01b03168152602081019190915260400160002054610a55576002610a226106ff565b81546001810183556000928352602090922090910180546001600160a01b0319166001600160a01b039092169190911790555b8060016000610a626106ff565b6001600160a01b03166001600160a01b031681526020019081526020016000206000828254610a91919061143c565b909155505050565b60095460075460405163a9059cbb60e01b81526001600160a01b0391821660048201526024810184905291169063a9059cbb90604401602060405180830381600087803b158015610ae957600080fd5b505af1158015610afd573d6000803e3d6000fd5b505050506040513d601f19601f82011682018060405250810190610b2191906113de565b5050565b600854600a546001600160a01b0391821691600091610b449116610d83565b90506000826001600160a01b0316631f00ca7485846040518363ffffffff1660e01b8152600401610b769291906112db565b60006040518083038186803b158015610b8e57600080fd5b505afa158015610ba2573d6000803e3d6000fd5b505050506040513d6000823e601f3d908101601f19168201604052610bca919081019061130a565b905080600081518110610bdf57610bdf6113c8565b6020026020010151341015610c555760405162461bcd60e51b815260206004820152603160248201527f4e6f7420656e6f756768204d6174696320746f207377617020746f207265717560448201527034b932b21031b0b93137b7102a37b5b2b760791b60648201526084015b60405180910390fd5b60405163fb3bdb4160e01b81526001600160a01b0384169063fb3bdb41903490610c89908890879030904290600401611462565b6000604051808303818588803b158015610ca257600080fd5b505af1158015610cb6573d6000803e3d6000fd5b50505050506040513d6000823e601f3d908101601f19168201604052610cdf919081019061130a565b5050505050565b6000610cf06106ff565b6001600160a01b03164760405160006040518083038185875af1925050503d8060008114610d3a576040519150601f19603f3d011682016040523d82523d6000602084013e610d3f565b606091505b5050905080610d805760405162461bcd60e51b815260206004820152600d60248201526c1c99599d5b990819985a5b1959609a1b6044820152606401610c4c565b50565b600b546060906001600160a01b0383811691161415610e2c576040805160028082526060820183526000926020830190803683375050600b5482519293506001600160a01b031691839150600090610ddd57610ddd6113c8565b6001600160a01b039283166020918202929092010152600954825191169082906001908110610e0e57610e0e6113c8565b6001600160a01b039092166020928302919091019091015292915050565b60408051600380825260808201909252600091602082016060803683370190505090508281600081518110610e6357610e636113c8565b6001600160a01b039283166020918202929092010152600b54825191169082906001908110610e9457610e946113c8565b6001600160a01b039283166020918202929092010152600954825191169082906002908110610e0e57610e0e6113c8565b919050565b8060066000828254610edc919061143c565b90915550600490506000610eee6106ff565b6001600160a01b03168152602081019190915260400160002054610f49576005610f166106ff565b81546001810183556000928352602090922090910180546001600160a01b0319166001600160a01b039092169190911790555b8060046000610a626106ff565b6000610fab826040518060400160405280602081526020017f5361666545524332303a206c6f772d6c6576656c2063616c6c206661696c6564815250856001600160a01b031661102d9092919063ffffffff16565b8051909150156110285780806020019051810190610fc991906113de565b6110285760405162461bcd60e51b815260206004820152602a60248201527f5361666545524332303a204552433230206f7065726174696f6e20646964206e6044820152691bdd081cdd58d8d9595960b21b6064820152608401610c4c565b505050565b606061103c8484600085611046565b90505b9392505050565b6060824710156110a75760405162461bcd60e51b815260206004820152602660248201527f416464726573733a20696e73756666696369656e742062616c616e636520666f6044820152651c8818d85b1b60d21b6064820152608401610c4c565b6001600160a01b0385163b6110fe5760405162461bcd60e51b815260206004820152601d60248201527f416464726573733a2063616c6c20746f206e6f6e2d636f6e74726163740000006044820152606401610c4c565b600080866001600160a01b0316858760405161111a9190611497565b60006040518083038185875af1925050503d8060008114611157576040519150601f19603f3d011682016040523d82523d6000602084013e61115c565b606091505b509150915061116c828286611177565b979650505050505050565b6060831561118657508161103f565b8251156111965782518084602001fd5b8160405162461bcd60e51b8152600401610c4c919061128f565b600081518084526020808501945080840160005b838110156111e95781516001600160a01b0316875295820195908201906001016111c4565b509495945050505050565b60208152600061103f60208301846111b0565b80356001600160a01b0381168114610ec557600080fd5b60006020828403121561123057600080fd5b61103f82611207565b6000806040838503121561124c57600080fd5b61125583611207565b946020939093013593505050565b60005b8381101561127e578181015183820152602001611266565b8381111561078d5750506000910152565b60208152600082518060208401526112ae816040850160208701611263565b601f01601f19169190910160400192915050565b6000602082840312156112d457600080fd5b5035919050565b82815260406020820152600061103c60408301846111b0565b634e487b7160e01b600052604160045260246000fd5b6000602080838503121561131d57600080fd5b825167ffffffffffffffff8082111561133557600080fd5b818501915085601f83011261134957600080fd5b81518181111561135b5761135b6112f4565b8060051b604051601f19603f83011681018181108582111715611380576113806112f4565b60405291825284820192508381018501918883111561139e57600080fd5b938501935b828510156113bc578451845293850193928501926113a3565b98975050505050505050565b634e487b7160e01b600052603260045260246000fd5b6000602082840312156113f057600080fd5b8151801515811461103f57600080fd5b85815284602082015260a06040820152600061141f60a08301866111b0565b6001600160a01b0394909416606083015250608001529392505050565b6000821982111561145d57634e487b7160e01b600052601160045260246000fd5b500190565b84815260806020820152600061147b60808301866111b0565b6001600160a01b03949094166040830152506060015292915050565b600082516114a9818460208701611263565b919091019291505056fe322e322e352b6f70656e67736e2e726563697069656e742e6972656c6179726563697069656e74a264697066735822122012656a2493b1035e25d2a189b208c9180b363e301cab04f43d99613c11fbe8d164736f6c63430008090033",
  "linkReferences": {},
  "deployedLinkReferences": {}
}